:100000000C9430000C94B0090C94B0090C94B00915
:100010000C94B0090C94B0090C94B0090C94B0097C
:100020000C94B0090C94B0090C94B0090C94B0096C
:100030000C94B0090C94B0090C94B0090C94B0095C
:100040000C94B0090C94B0090C94B0090C94B0094C
:100050000C94B009006000628000620065001372B9
:1000600011241FBECFE5D8E0DEBFCDBFE4E5F0E050
:1000700040E017C0B591A59135912591059107FDF7
:100080000CC095918591EF01F92FE82F05900D9205
:10009000A217B307D9F7FE0104C01D92A217B30738
:1000A000E1F7E036F40731F70E948E090C94560907
:0400B000F894FFCFF2
:1000B40057656C636F6D6500566F6C746D65746520
:1000C40072002E2E00427920497261716920262027
:1000D4004D696E610056284443293D00206D560049
:1000E4004D61783D005628524D53293D00457272AA
:1000F4006F7220696E00636F6E6E656374696F6EF4
:10010400004F75744F6652616E67650052783D000A
:100114006F686D00526D69643D0054656D703D00FB
:03012400DF4300B6
:100128004F925F926F927F928F929F92AF92BF92FF
:10013800CF92DF92EF92FF92CF93DF93CDB7DEB7E6
:1001480060970FB6F894DEBF0FBECDBF2B013C0100
:100158006B017C0120E8E21AF108C114D10420E8FF
:10016800E2062FE7F206A0F16B017C01CC0CDD1C46
:10017800EE1CFF1CCD28CE28CF2859F49B01AC01DA
:100188000E94A6099B01AC0160E070E080E89FEB4B
:100198000FC097FF10C021E230E030936100209338
:1001A80060009B01AC010E946B0920E030E0A901CE
:1001B8000E94A209E4C020E030E040E05CE40E9434
:1001C800A6092B013C0187EE9FEF9E878D8712C001
:1001D8006115710520E882072FE7920708F0CFC064
:1001E8004114510480E868068FE3780609F4CCC00E
:1001F8001E861D869DE0490E9BEF591E9AE4691ED6
:10020800711CD301C201AF77BB27BC01CD016D5072
:100218007B4F8A4C904C20E030E040E85FE30E943E
:100228006B096B017C0120E030E040E050E40E9463
:100238006C099B01AC01C701B6010E94A209698340
:100248007A838B839C839B01AC010E94A6096D83F2
:100258007E838F8398879B01AC010E94A6094B017E
:100268005C0120E030E040E05FE3C701B6010E9496
:10027800A609A70196010E94A60969877A878B8734
:100288009C8787E176946794579447948A95D1F729
:100298002FE7421A51086D857E85640D751D072E5E
:1002A800000C880B990B0E9439072B013C0126E2B0
:1002B8003EE948E75EE3C501B4010E94A60923E1CF
:1002C8003EEC4CEC5EE30E946C09A50194010E948F
:1002D800A6096D877E878F87988B2EEE39EE41E9C8
:1002E8005EE3C501B4010E94A6092AEA3AEA4AE295
:1002F8005FE30E946C092D813E814F8158850E94E1
:10030800A6099B01AC016D857E858F8598890E9421
:100318006C0929853A854B855C850E946C09298181
:100328003A814B815C810E94A6094B015C0121ED59
:1003380037EF47E157E3C301B2010E94A6099B01C9
:10034800AC01C501B4010E946C0929853A854B8529
:100358005C850E946B09A70196010E946C096B01DC
:100368007C0120E831E741E35FE3C301B2010E9469
:10037800A6099B01AC01C701B6010E946C09562F62
:10038800472F382F292F04C050E040E030E020E00C
:10039800652F742F832F922F60960FB6F894DEBFC7
:1003A8000FBECDBFDF91CF91FF90EF90DF90CF9040
:1003B800BF90AF909F908F907F906F905F904F907D
:0203C800089596
:1003CA00411134C0813089F028F08230C9F083307D
:1003DA0011F108952AB381E090E002C0880F991FB5
:1003EA006A95E2F7822B8ABB089527B381E090E0F1
:1003FA0002C0880F991F6A95E2F7822B87BB08957E
:10040A0024B381E090E002C0880F991F6A95E2F751
:10041A00822B84BB089521B381E090E002C0880F4B
:10042A00991F6A95E2F7822B81BB0895413009F042
:10043A0048C08130B1F028F0823019F1833089F157
:10044A0008952AB381E090E002C0880F991F6A9547
:10045A00E2F78095922F98239ABB9BB389238BBB93
:10046A00089527B381E090E002C0880F991F6A952A
:10047A00E2F78095922F982397BB98B3892388BB7C
:10048A00089524B381E090E002C0880F991F6A950D
:10049A00E2F78095922F982394BB95B3892385BB65
:1004AA00089521B381E090E002C0880F991F6A95F0
:1004BA00E2F78095922F982391BB92B3892382BB4E
:1004CA000895423009F047C08130B1F028F08230F7
:1004DA0019F1833089F108952AB381E090E002C0CE
:1004EA00880F991F6A95E2F7982F909592239ABBE5
:1004FA009BB3892B8BBB089527B381E090E002C0A0
:10050A00880F991F6A95E2F7982F9095922397BBC7
:10051A0098B3892B88BB089524B381E090E002C088
:10052A00880F991F6A95E2F7982F9095922394BBAA
:10053A0095B3892B85BB089521B381E090E002C071
:10054A00880F991F6A95E2F7982F9095922391BB8D
:08055A0092B3892B82BB0895C6
:10056200CF93DF9300D000D000D0CDB7DEB71A8290
:1005720019821B821C821D821E8288C00E94E7078C
:100582002B813C814D815E810E946C096B837C834F
:100592008D839E8389819A8101969A838983898139
:1005A2009A8180349F4154F36B817C818D819E813D
:1005B20020E030E04AEF55E40E94A2096B017C0181
:1005C20020E030E04AE754E40E94A2094B015C01BA
:1005D2000E949E0920E030E040EA51E4C501B401E6
:1005E2000E94A60920E030E044EB52E40E946B092D
:1005F2002B013C0120E030E040E050ECC501B401A9
:100602000E94A60920E030E040E151E40E946B091B
:100612009B01AC01C301B2010E94A20920E030E0BB
:100622004AE754E40E94A6090E9494002FEF3FEF8C
:100632004FE75FE30E94A20924E13EEA4BEC51EC52
:100642000E94A6092DE33AE042E853E40E946C09B5
:100652004B015C016EE171E080E00E94BF08C501C0
:10066200B4010E941A0864E271E080E00E94BF08AF
:1006720062E081E00E941009C701B6010E9472097E
:100682000E94F2051B821C821D821E821A8219821E
:0206920086CF11
:10069400CF93C82F40E062E083E00E94E50140E090
:1006A40061E083E00E94E50140E060E083E00E94B5
:1006B400E50140E060E082E00E94E50140E061E0A5
:1006C40082E00E94E50140E062E082E00E94E501F0
:1006D40040E063E082E00E94E50140E064E082E003
:1006E4000E94E50140E065E082E00E94E50140E00F
:1006F40066E082E00E94E50140E067E082E00E945B
:10070400E50140E062E083E00E94D70340E061E05D
:1007140083E00E94D7034C2F417060E082E00E9486
:10072400D703C1FB442740F961E082E00E94D7036C
:10073400C2FB442740F962E082E00E94D703C3FB76
:10074400442740F963E082E00E94D703C4FB4427B6
:1007540040F964E082E00E94D703C5FB442740F9D6
:1007640065E082E00E94D703C6FB442740F966E0B7
:1007740082E00E94D7034C2F441F4427441F67E0A4
:1007840082E00E94D70341E060E083E00E94D70347
:100794008FE99FE00197F1F700C0000040E060E0BE
:0A07A40083E00E94D703CF9108956F
:1007AE004130A1F5813089F028F08230C9F08330D4
:1007BE0011F108952BB381E090E002C0880F991FCC
:1007CE006A95E2F7822B8BBB089528B381E090E007
:1007DE0002C0880F991F6A95E2F7822B88BB089595
:1007EE0025B381E090E002C0880F991F6A95E2F769
:1007FE00822B85BB089522B381E090E002C0880F62
:10080E00991F6A95E2F7822B82BB0895411137C07A
:10081E00813091F028F08230D9F0833029F108959B
:10082E002BB381E090E002C0880F991F6A95E2F722
:10083E00809582238BBB089528B381E090E002C09F
:10084E00880F991F6A95E2F78095822388BB0895D9
:10085E0025B381E090E002C0880F991F6A95E2F7F8
:10086E008095822385BB089522B381E090E002C07B
:10087E00880F991F6A95E2F78095822382BB0895AF
:10088E0010C00E94800958F00E94790940F029F4A6
:10089E005F3F29F00C94940951110C9488090C9423
:1008AE00AD090E947B0868F39923B1F3552391F3A8
:1008BE00951B550BBB27AA2762177307840738F0C1
:1008CE009F5F5F4F220F331F441FAA1FA9F335D01E
:1008DE000E2E3AF0E0E832D091505040E695001CD2
:1008EE00CAF72BD0FE2F29D0660F771F881FBB1F8C
:1008FE00261737074807AB07B0E809F0BB0B802D6A
:10090E00BF01FF2793585F4F3AF09E3F510578F095
:10091E000C9494090C9488095F3FE4F3983ED4F349
:10092E00869577956795B795F7959F5FC9F7880F69
:10093E00911D9695879597F90895E1E0660F771FBB
:10094E00881FBB1F621773078407BA0720F0621B4C
:0E095E00730B840BBA0BEE1F88F7E09508951B
:10096C00FF920F931F93CF93DF93CDB7DEB72A97E8
:10097C000FB6F894DEBF0FBECDBF042F6115710505
:10098C008105910559F010E037C0E1E0F0E0EC0F83
:10099C00FD1FE10FF11D10821F5F01C010E0101749
:1009AC00E0F51A3090F339C0611571058105910598
:1009BC00C9F0F62E2AE030E040E050E00E949D089D
:1009CC00622F732F842F952FE1E0F0E0EC0FFD1FC9
:1009DC00E10FF11D220F322F330F330F230FF21AB9
:1009EC00F08209C00B30C8F4E1E0F0E0EC0FFD1F21
:1009FC00E10FF11D10821F5F1017B0F20EC0E12F36
:100A0C00F0E0319781E090E08C0F9D1FE80FF91F0B
:100A1C008081805D0E94AA0911501111F0CF2A9695
:100A2C000FB6F894DEBF0FBECDBFDF91CF911F91F3
:060A3C000F91FF900895E8
:100A42000FC00E94790938F00E94800920F0952396
:100A520011F00C9494090C94AD0911240C9488099A
:100A62000E947B0870F3959FC1F3950F50E0551FCC
:100A7200629FF001729FBB27F00DB11D639FAA27F1
:100A8200F00DB11DAA1F649F6627B00DA11D661F40
:100A9200829F2227B00DA11D621F739FB00DA11D61
:100AA200621F839FA00D611D221F749F3327A00D1B
:100AB200611D231F849F600D211D822F762F6A2FB7
:100AC20011249F5750409AF0F1F088234AF0EE0F1C
:100AD200FF1FBB1F661F771F881F91505040A9F749
:100AE2009E3F510580F00C9494090C9488095F3F55
:100AF200E4F3983ED4F3869577956795B795F79585
:100B0200E7959F5FC1F7FE2B880F911D96958795FC
:040B120097F90895B2
:100B160011C00E94790938F00E94800920F039F44A
:100B26009F3F19F426F40C94AD090EF4E095E7FB0B
:100B36000C949409E92F0E947B0858F3BA176207B0
:100B460073078407950720F079F4A6F50C948709B6
:100B56000EF4E0950B2EBA2FA02D0B01B9019001D2
:100B66000C01CA01A0011124FF27591B99F0593F16
:100B760050F4503E68F11A16F040A22F232F342F5E
:100B86004427585FF3CF469537952795A795F040AC
:100B96005395C9F77EF41F16BA0B620B730B840BC1
:100BA600BAF09150A1F0FF0FBB1F661F771F881F79
:100BB600C2F70EC0BA0F621F731F841F48F48795D1
:100BC60077956795B795F7959E3F08F0B0CF9395C3
:0E0BD600880F08F09927EE0F979587950895E0
:100BE400CF92DF92EF92FF920F931F93CF936B01FB
:100BF4007C0199235CF48DE20E945606002711279C
:100C040098010C191D092E093F0904C0992314F0F9
:100C14008B019C01C0E060E070E0CB01DC01CB0102
:100C2400880F991FAA1FBB1F6C017D01CC0CDD1C12
:100C3400EE1CFF1CCC0CDD1CEE1CFF1CC80ED91EC8
:100C4400EA1EFB1EC901B8012AE030E040E050E092
:100C54000E949D086C0D7D1D8E1D9F1D022F132F5C
:100C6400242F352FCF5F0115110521053105B1F66C
:100C74002AE030E040E050E00E949D08E22EF32E8E
:100C8400042F152F80E3860F0E9456066E2D7F2DAC
:100C9400802F912FC15061F7CF911F910F91FF9039
:080CA400EF90DF90CF9008955E
:100CAC00CF93C82F0E94AF0741E062E083E00E941F
:100CBC00D70340E061E083E00E94D7034C2F4170E2
:100CCC0060E082E00E94D703C1FB442740F961E059
:100CDC0082E00E94D703C2FB442740F962E082E025
:100CEC000E94D703C3FB442740F963E082E00E94D3
:100CFC00D703C4FB442740F964E082E00E94D70389
:100D0C00C5FB442740F965E082E00E94D703C6FB8F
:100D1C00442740F966E082E00E94D7034C2F441F21
:100D2C004427441F67E082E00E94D70341E060E063
:100D3C0083E00E94D7038FE99FE00197F1F700C091
:100D4C00000040E060E083E00E94D703CF9108955B
:100D5C00CF92DF92EF92A82FCB0127B12F7327B937
:100D6C0047B1FC013491A7FD308150E4359F9001CF
:100D7C001124242B27B927B12F7D27B99C014A2F89
:100D8C002F5F3F4F4F4FF901249147FD20812830B1
:100D9C0021F426B12F7D26B917C026B1206226B9C1
:100DAC0020B72F7120BF40B76C01EA2E2FEFC21A6B
:100DBC00D20AE20AF6013491E7FC308150E2359F09
:100DCC0090011124242B20BF26B1287F26B926B1EF
:100DDC000296A11DFC018491A7FD8081822B86B90E
:080DEC00EF90DF90CF90089515
:100DF40042E064E081E00E94E50142E065E081E0D8
:100E04000E94E50142E066E081E00E94E50142E0E3
:100E140067E081E00E94E50140E063E081E00E9438
:100E2400E50140E062E081E00E94E50140E061E02C
:100E340081E00E94E50140E060E081E00E94E5017C
:100E440041E063E081E00E94D70341E062E081E099
:100E54000E94D70341E061E081E00E94D70341E0B2
:0A0E640060E081E00E94D7030895CA
:100E6E00E89409C097FB3EF4909580957095619536
:100E7E007F4F8F4F9F4F9923A9F0F92F96E9BB27EC
:100E8E009395F695879577956795B795F111F8CF68
:100E9E00FAF4BB0F11F460FF1BC06F5F7F4F8F4FD3
:100EAE009F4F16C0882311F096E911C0772321F0C9
:100EBE009EE8872F762F05C0662371F096E8862F61
:100ECE0070E060E02AF09A95660F771F881FDAF7B8
:0A0EDE00880F9695879597F90895FF
:100EE800CF93DF93C82FD92F613069F5713041F066
:100EF80018F0723049F00BC08CE00E944A0307C01A
:100F08008FE00E944A0303C08EE00E944A03C11189
:100F18000CC0D11104C080E30E944A0319C0D1302B
:100F2800B9F484E30E944A0313C0C13089F4D11193
:100F380004C088E30E944A030BC0D13049F48CE313
:100F48000E944A0305C0611103C088E00E944A0359
:060F5800DF91CF91089526
:100F5E0040E062E083E00E94E50140E061E083E072
:100F6E000E94E50140E060E083E00E94E50140E080
:100F7E0060E082E00E94E50140E061E082E00E94D4
:100F8E00E50140E062E082E00E94E50140E063E0BE
:100F9E0082E00E94E50140E064E082E00E94E5010B
:100FAE0040E065E082E00E94E50140E066E082E01C
:100FBE000E94E50140E067E082E00E94E5010895AD
:100FCE00CF93DF9300D000D0CDB7DEB781E00E9483
:100FDE0032090E943E09BC0180E090E00E94370772
:100FEE0069837A838B839C8369817A818B819C81CF
:100FFE0020E030E040E255E40E94A60920E030EC0B
:10100E004FE754E40E94A20969837A838B839C8301
:10101E0069817A818B819C810F900F900F900F9038
:06102E00DF91CF9108954F
:101034008F929F92AF92BF92CF92DF92EF92FF92E4
:101044006B017C010E944C084B015C014FEF0E9434
:10105400B6048EE20E94AA09C501B4010E943707B2
:101064009B01AC01C701B6010E946B0920E034E288
:1010740044E759E40E94A6090E944C084FEF0E94DD
:10108400B604FF90EF90DF90CF90BF90AF909F9009
:041094008F9008959C
:101098000E94830888F09F5798F0B92F9927B75175
:1010A800B0F0E1F0660F771F881F991F1AF0BA9504
:1010B800C9F714C0B13091F00E948709B1E00895D2
:1010C8000C948709672F782F8827B85F39F0B93FC4
:1010D800CCF3869577956795B395D9F73EF49095B7
:0E10E8008095709561957F4F8F4F9F4F0895B3
:1010F60057FD9058440F551F59F05F3F71F04795C3
:10110600880F97FB991F61F09F3F79F087950895A7
:10111600121613061406551FF2CF4695F1DF08C0C6
:10112600161617061806991FF1CF869571056105E3
:04113600089408957C
:10113A00A1E21A2EAA1BBB1BFD010DC0AA1FBB1FD1
:10114A00EE1FFF1FA217B307E407F50720F0A21B43
:10115A00B30BE40BF50B661F771F881F991F1A94B0
:10116A0069F760957095809590959B01AC01BD01DA
:04117A00CF01089504
:10117E00CF92DF92EF926B01E82E06C00E945606C8
:10118E008FEFC81AD80AE80AF6018491E7FC80812D
:0C119E008111F4CFEF90DF90CF90089506
:1011AA0097FB072E16F4009407D077FD09D00E940A
:1011BA00E90807FC05D03EF4909581959F4F089564
:0811CA00709561957F4F0895B7
:1011D200AA1BBB1B51E107C0AA1FBB1FA617B7075B
:1011E20010F0A61BB70B881F991F5A95A9F7809577
:0811F2009095BC01CD010895A8
:1011FA000E94AF0761E071E081E090E00E9474070D
:10120A000E949E0940E063E081E00E94E50186E4D5
:06121A000E946109089525
:101220009FEF980F903160F4613019F0623029F02F
:10123000089581580E944A03089581540E944A03E8
:0212400008950F
:10124200092E0394000C11F4882352F0BB0F40F4D2
:10125200BF2B11F460FF04C06F5F7F4F8F4F9F4F12
:021262000895ED
:101264003699FECF97B1907E97B997B1892B87B9FC
:0812740086B1806486B908957B
:10127C0081E090E003C0009719F00196349BFBCFFE
:08128C0084B195B1937008953F
:101294000E94FD080E94FA0662E670E080E80E945F
:0812A400AE060E949A090895AC
:1012AC00EC010E94B7090E94B609CE010E94B80950
:0612BC00CE010E94B409FE
:1012C200982F80E064E670E00E94D5086CBF89E741
:0412D20083BF089539
:0E12D6005058BB27AA270E948B050C942109B3
:0E12E4000E944C086894B1110C94880908957A
:0E12F20000240A941616170618060906089519
:0E13000000240A94121613061406050608951A
:0E130E00E894BB2766277727CB0197F908954F
:0C131C00F8940E944A090E94B209FDCF1B
:0C13280097F99F6780E870E060E008958E
:0813340086B1806886B90895B6
:08133C0081E00E944A030895BC
:081344000E9447040C942109EA
:08134C000E9421050C94210907
:061354000E9456060895F8
:06135A009FEF80EC0895F6
:041360000C940000E9
:041364000E94B10230
:041368000E94580087
:02136C000895E2
:02136E000895E0
:021370000895DE
:0313720003080568
:00000001FF
